{
  "contractName": "HelloWorld",
  "abi": [
    {
      "constant": false,
      "inputs": [],
      "name": "sayHello",
      "outputs": [
        {
          "name": "",
          "type": "string"
        }
      ],
      "payable": false,
      "stateMutability": "nonpayable",
      "type": "function"
    }
  ],
  "bytecode": "0x608060405234801561001057600080fd5b5061013f806100206000396000f300608060405260043610610041576000357c0100000000000000000000000000000000000000000000000000000000900463ffffffff168063ef5fb05b14610046575b600080fd5b34801561005257600080fd5b5061005b6100d6565b6040518080602001828103825283818151815260200191508051906020019080838360005b8381101561009b578082015181840152602081019050610080565b50505050905090810190601f1680156100c85780820380516001836020036101000a031916815260200191505b509250505060405180910390f35b60606040805190810160405280600b81526020017f48656c6c6f20576f726c640000000000000000000000000000000000000000008152509050905600a165627a7a723058201a94dfa33893d638bb5a214d752b198121a108f3eeb6d06d9f2e52c93f10872c0029",
  "source": "pragma solidity ^0.4.24;\nimport \"zeppelin-solidity/contracts/token/ERC20/StandardToken.sol\";\n\n// ----------------------------------------------------------------------------\n// ERC20 Token, with the addition of symbol, name and decimals and a\n// fixed supply\n// ----------------------------------------------------------------------------\n// contract BasicERC20Token is StandardToken {\n//     using SafeMath for uint256;\n\n//     string public symbol;\n//     string public name;\n//     uint8 public decimals;\n//     uint256 _totalSupply;\n\n//     mapping(address => uint256) balances;\n//     mapping(address => mapping(address => uint256)) allowed;\n\n//     // ------------------------------------------------------------------------\n//     // Constructor\n//     // ------------------------------------------------------------------------\n//     constructor() public {\n//         symbol = \"CC\";\n//         name = \"Example CC Token\";\n//         decimals = 18;\n//         _totalSupply = 1000000 * 10**uint256(decimals);\n//         balances[msg.sender] = _totalSupply;\n//         emit Transfer(address(0), msg.sender, _totalSupply);\n//     }\n// }\n\ncontract HelloWorld {\n    function sayHello() public returns (string) {\n        return (\"Hello World\");\n    }\n}",
  "sourcePath": "/Users/leo/Desktop/Issue-ERC20-token/contracts/ERC20.sol",
  "compiler": {
    "name": "solc",
    "version": "0.4.24+commit.e67f0147.Emscripten.clang"
  },
  "schemaVersion": "3.4.5",
  "updatedAt": "2022-03-03T12:22:13.724Z",
  "networkType": "ethereum",
  "devdoc": {
    "methods": {}
  },
  "userdoc": {
    "methods": {}
  }
}